:020000040800F2
:100000000000052035060008850600088506000862
:100010008506000885060008850600080000000027
:10002000000000000000000000000000850600083D
:100030008506000800000000850600088506000807
:100040008506000885060008850600088506000864
:100050008506000885060008850600088506000854
:100060008506000885060008850600088506000844
:100070008506000885060008850600088506000834
:100080008506000885060008850600088506000824
:100090008506000885060008850600088506000814
:1000A0008506000885060008850600088506000804
:1000B00085060008850600088506000885060008F4
:1000C00085060008850600088506000885060008E4
:1000D00085060008850600088506000885060008D4
:1000E00085060008850600088506000885060008C4
:1000F000ED02000885060008850600088506000850
:1001000085060008850600088506000885060008A3
:100110008506000885060008850600088506000893
:100120008506000885060008850600088506000883
:100130008506000885060008850600088506000873
:100140008506000885060008850600088506000863
:100150008506000885060008850600088506000853
:100160008506000885060008850600088506000843
:100170008506000885060008850600088506000833
:100180008506000885060008850600088506000823
:100190008506000885060008850600088506000813
:1001A0008506000885060008850600088506000803
:1001B00085060008850600088506000885060008F3
:0801C000850600088506000811
:1001C80010B5054C237833B9044B13B10448AFF389
:1001D80000800123237010BD0400002000000000EF
:1001E800D006000808B5034B1BB103490348AFF319
:1001F800008008BD0000000008000020D0060008AC
:1002080080B500AF0D4B1B6B0C4A43F0040313631E
:100218000A4B1B6B094A43F0080313630121084882
:1002280000F012F80621064800F00EF80322062115
:10023800044800F01EF800BF80BD00BF003802402F
:10024800000C02400008024080B483B000AF786020
:1002580039607B681B683A685200012101FA02F292
:100268001A437B681A6000BF0C37BD465DF8047BF3
:10027800704780B485B000AFF860B9607A60BB6839
:10028800072B0AD8FB681A6ABB689B00796801FAD1
:1002980003F31A43FB681A620AE0FB685A6ABB68F0
:1002A800083B9B00796801FA03F31A43FB685A621A
:1002B800FB681B68BA685200022101FA02F21A436D
:1002C800FB681A60FB689B68BA685200032101FA50
:1002D80002F21A43FB689A6000BF1437BD465DF806
:1002E800047B704780B400AF084B1B69074A23F0B2
:1002F80001031361064B5B69054A83F040035361B0
:1003080000BFBD465DF8047B704700BF0004014094
:10031800000C024080B582B000AF72B600BF00F09A
:100328001BF8FFF76DFF00F039F962B600BF002334
:100338007B6002E07B6801337B607B68044A934200
:10034800F8DB044B5B69034A83F002035361EEE771
:1003580080969800000C024080B582B000AF434BF5
:100368004FF0FF321A61414B00221A613F4B4FF0A8
:10037800FF325A613D4B00225A613C4B4FF0FF322D
:100388001A623A4B00221A62384B4FF0FF325A6217
:10039800364B00225A6200F081F8344B1B6C334A0A
:1003A80043F080531364314B1B68304A43F4802375
:1003B80013602E4B1B682D4A43F48033136000BF33
:1003C8002A4B1B6803F40033002BF9D0274B1B681A
:1003D800264A23F08073136000BF244B1B6803F088
:1003E8000073002BF9D1214B9B68204A43F4144336
:1003F800936000237B607B6843F480037B607B68A9
:1004080043F019037B607B6843F4D8437B60174A49
:100418007B685360164B1B68154A43F0070313604B
:10042800124B1B68114A43F08073136000BF0F4BD7
:100438001B6803F00073002BF9D00E4B1B680D4AA4
:1004480043F4803313600B4B1B680A4A43F40033B0
:100458001360064B9B68054A43F00203936000F063
:100468001DF800BF0837BD4680BD00BF00380240F8
:10047800003C02400070004080B400AF064BD3F847
:100488008830054A43F47003C2F8883000BFBD467F
:100498005DF8047B704700BF00ED00E080B487B0D2
:1004A80000AF00233B6100237B610223FB60002334
:1004B800BB6002237B60344B9B6803F00C033B61F9
:1004C8003B69082B11D03B69082B44D83B69002BAA
:1004D80003D03B69042B04D03DE02C4B2C4A1A6016
:1004E8003DE02A4B2B4A1A6039E0274B5B689B0D8D
:1004F80003F00103BB60244B5B6803F03F037B60A0
:10050800BB68002B0CD0234A7B68B2FBF3F31E4A6E
:1005180052689209C2F3080202FB03F37B610BE005
:100528001B4A7B68B2FBF3F3174A52689209C2F37D
:10053800080202FB03F37B61134B5B681B0C03F09F
:10054800030301335B00FB607A69FB68B2FBF3F3DA
:100558000E4A136003E00D4B0D4A1A6000BF0A4BA8
:100568009B681B0903F00F030B4AD35C3B61074BE5
:100578001A683B6922FA03F3044A136000BF1C3768
:10058800BD465DF8047B704700380240000000203B
:100598000024F40040787D01E806000880B400AF2C
:1005A800204B5B6C1F4A43F0020353641E4B00222E
:1005B8009A621D4B40F23742DA621B4BDB6A1A4AD9
:1005C8005B085363184B1B68174A43F040031360DA
:1005D800154B1B6A144A43F001031362124B9B69C3
:1005E800114A43F0600393610F4B9B690E4A43F035
:1005F800080393610C4B5B6C0B4A43F40043536450
:10060800094BDB68084A43F00103D360064B1B68BB
:10061800054A43F00103136000BFBD465DF8047B43
:10062800704700BF00380240000401400D4885466D
:10063800FFF722FF0C480D490D4A002302E0D45869
:10064800C4500433C4188C42F9D30A4A0A4C002314
:1006580001E013600432A242FBD300F011F8FFF767
:1006680059FEFEE7000005200000002004000020DD
:10067800000700080400002020000020FEE700001A
:1006880070B50D4D0D4C641BA4100026A64209D16F
:100698000B4D0C4C00F018F8641BA4100026A64261
:1006A80005D170BD55F8043B98470136EEE755F87B
:1006B800043B98470136F2E7F8060008F8060008F8
:1006C800F8060008FC060008F8B500BFF8BC08BC2E
:1006D8009E467047F8B500BFF8BC08BC9E467047F8
:1006E80000000000000000000102030406070809DA
:0406F800ED01000808
:0406FC00C901000828
:040700000024F400DD
:0400000508000635B4
:00000001FF
