:020000040800F2
:1000000000000520B50D0008050E0008050E0008CB
:10001000050E0008050E0008050E0008000000008F
:10002000000000000000000000000000050E0008B5
:10003000050E000800000000050E0008050E00086F
:10004000050E0008050E0008050E0008050E000844
:10005000050E0008050E0008050E0008050E000834
:10006000050E0008050E0008050E0008050E000824
:10007000050E0008050E0008050E0008050E000814
:10008000050E0008050E0008050E0008050E000804
:10009000050E0008050E0008050E0008050E0008F4
:1000A000050E0008050E0008050E0008050E0008E4
:1000B000050E0008050E0008050E0008050E0008D4
:1000C000050E0008050E0008050E0008050E0008C4
:1000D000050E0008050E0008050E0008050E0008B4
:1000E000050E0008050E0008050E0008050E0008A4
:1000F000A10A0008050E0008050E0008050E0008FC
:10010000050E0008050E0008050E0008050E000883
:10011000050E0008050E0008050E0008050E000873
:1001200009020008050E0008050E0008050E00086B
:10013000050E0008050E0008050E0008050E000853
:10014000050E0008050E0008050E0008050E000843
:10015000050E0008050E0008050E0008050E000833
:10016000050E0008050E0008050E0008050E000823
:10017000050E0008050E0008050E0008050E000813
:10018000050E0008050E0008050E0008050E000803
:10019000050E0008050E0008050E0008050E0008F3
:1001A000050E0008050E0008050E0008050E0008E3
:1001B000050E0008050E0008050E0008050E0008D3
:0801C000050E0008050E000801
:1001C80010B5054C237833B9044B13B10448AFF389
:1001D80000800123237010BD800000200000000073
:1001E800500E000808B5034B1BB103490348AFF391
:1001F800008008BD0000000084000020500E0008A8
:1002080080B582B000AF264B9B68254A43F0200397
:100218009360BFF36F8F00BF00F04AF800F0C6F894
:10022800204B5B681F4A53661E4BD3ED017AB0EE34
:10023800670A1D4800F0F8F8F0EE407A194BC3ED54
:100248001C7A184B93ED1B7A164BD3ED197A27EECF
:10025800277A144BD3ED1A7A77EE277AFCEEE77AF1
:1002680017EE903A7B600F4B93ED1E7A0D4BD3ED52
:100278001C7A27EE277A0B4BD3ED1D7A77EE277A77
:10028800FCEEE77A17EE903A3B603B681A040749A0
:100298007B6813430B6200BF0837BD4680BD00BFB3
:1002A80000640240000000209C0000200074004010
:1002B80080B400AF3B4B93ED0D7A3B4B1B6807EEC8
:1002C800903AF8EE677A27EE277A364BD3ED077A1D
:1002D80077EE277A334BC3ED017A324B93ED0E7AE2
:1002E800314B5B6807EE903AF8EE677A27EE277A8B
:1002F8002C4BD3ED087A77EE277A2A4BC3ED027A96
:10030800284B93ED0F7A284B9B6807EE903AF8EE4E
:10031800677A27EE277A234BD3ED097A77EE277A87
:10032800204BC3ED037A1F4B93ED107A1E4BDB680D
:1003380007EE903AF8EE677A27EE277A194BD3ED55
:100348000A7A77EE277A174BC3ED047A154B93EDAB
:10035800117A154B1B6907EE903AF8EE677A27EE8B
:10036800277A104BD3ED0B7A77EE277A0D4BC3ED36
:10037800057A0C4B93ED127A0B4B5B6907EE903ABA
:10038800F8EE677A27EE277A064BD3ED0C7A77EEEC
:10039800277A044BC3ED067A00BFBD465DF8047B9F
:1003A800704700BF000000207408002080B400AF30
:1003B8001B4B1B68002B2ED0194B1B684CF250327C
:1003C800934207D1164B4FF00002DA64144BDB6CF2
:1003D800134AD361124B93ED137A114BD3ED017A83
:1003E800DFED106A67EEA67A77EE277A0C4BC3ED3D
:1003F800137A0B4B1B68013B094A1360084B1B68B7
:10040800002B09D1064BD3ED137AF1EE677A044B32
:10041800C3ED077A00E000BFBD465DF8047B704776
:1004280000000020ACC5A73780B483B000AF786067
:1004380087ED000A7B6803F2D47393ED007A7B683A
:10044800D3F8D0377A689B001344D3ED007A37EE9F
:10045800677AD7ED007A77EE277A7B6803F2D47350
:10046800C3ED007A7B68D3F8D0377A689B001344D1
:100478003A681A607B68D3F8D0375A1C7B68C3F88F
:10048800D0277B68D3F8D037B3F5FA7F03D37B68DE
:100498000022C3F8D0277B6803F2D473D3ED007A27
:1004A8009FED057A67EE877AB0EE670A0C37BD468E
:1004B8005DF8047B704700BF6F12033B80B582B0C4
:1004C80000AF72B600BF00F0C0FA00F0FFFA00F00B
:1004D80055F900F007F900F029F800F0EBF800F002
:1004E80017FC62B600BF00237B6002E07B68013323
:1004F8007B607B68094A9342F8DD094B5B69084ACF
:1005080083F002035361074B1B6903F00203002BBE
:10051800E9D1054B4CF250321A60E4E79F8601009E
:10052800000C0240000402400000002080B400AF2C
:100538005B4B5B6C5A4A43F480735364584B5B6C57
:10054800574A43F400735364554B5B6C544A43F465
:1005580080635364534B9B68524A43F00103936092
:10056800514B9B68504A43F0010393604F4B9B6883
:100578004E4A43F0010393604A4B5B6B494A43F090
:1005880003035363484B484A5B6B5363474B5B6BAE
:10059800464A43F00E035363424B5B6B414A43F4B4
:1005A80010735363404B5B6B3F4A43F4D073536300
:1005B8003E4B5B6B3D4A43F4C0735363394BDB6A74
:1005C800384A43F48013D362374BDB6A364A43F424
:1005D8008013D362354BDB6A344A43F48013D36209
:1005E800304B5B682F4A43F4807353602E4B5B6833
:1005F8002D4A43F4807353602C4B5B682B4A43F4B9
:1006080080735360274BDB68264A43F08073D360BE
:10061800244B1B69234A43F400731361224B1B6963
:10062800214A43F0010313611F4BDB681E4A43F460
:100638000073D3601D4BDB681C4A43F48053D360BE
:100648001A4BDB68194A43F04003D360154B9B688B
:10065800144A43F0E0639360124B9B68114A43F0DD
:1006680080539360124B5B68114A43F40003536054
:100678000F4B5B680E4A43F4804353600C4B5B6836
:100688000B4A43F400535360094B5B68084A43F034
:100698001603536000BFBD465DF8047B704700BF7A
:1006A80000380240002001400021014000220140A2
:1006B8000023014080B400AF084B1B6C074A43F08D
:1006C80000531364064B1B68054A43F0011313607B
:1006D80000BFBD465DF8047B704700BF003802408C
:1006E8000074004080B400AF204B1B6B1F4A43F4DA
:1006F800800313631E4B1F4A9A601D4B1E4ADA6023
:100708001B4B06225A601A4B194A1B681360184B78
:100718001B68174A43F440331360154B1B68144A8F
:1007280043F480531360124B1B68114A43F480430F
:1007380013600F4B1B680E4A43F4806313600C4B25
:100748001B680B4A43F480731360094B1B68084A03
:1007580043F010031360064B1B68054A43F001037E
:10076800136000BFBD465DF8047B70470038024047
:1007780010640240082301407408002080B500AFCF
:10078800244B1B6B234A43F004031363214B1B6B5D
:10079800204A43F0080313631E4B1B6B1D4A43F0AA
:1007A800020313631B4B1B6B1A4A43F001031363C9
:1007B800184B1B6B174A43F020031363012116489B
:1007C80000F032F80621144800F02EF80322062122
:1007D800124800F03EF80021114800F073F8022199
:1007E8000E4800F06FF803210C4800F06BF8042164
:1007F8000C4800F067F80321094800F063F8042169
:10080800074800F05FF80521054800F05BF800BFD5
:1008180080BD00BF00380240000C024000080240C2
:10082800000002400014024080B483B000AF78603A
:1008380039607B681B683A685200012101FA02F2AC
:100848001A437B681A6000BF0C37BD465DF8047B0D
:10085800704780B485B000AFF860B9607A60BB6853
:10086800072B0AD8FB681A6ABB689B00796801FAEB
:1008780003F31A43FB681A620AE0FB685A6ABB680A
:10088800083B9B00796801FA03F31A43FB685A6234
:10089800FB681B68BA685200022101FA02F21A4387
:1008A800FB681A60FB689B68BA685200032101FA6A
:1008B80002F21A43FB689A6000BF1437BD465DF820
:1008C800047B704780B483B000AF786039607B6880
:1008D8001B683A685200032101FA02F21A437B6846
:1008E8001A6000BF0C37BD465DF8047B70470000F6
:1008F80080B485B000AF78607B6803F00703FB60C5
:100908000B4BDB68BB60BA684FF6FF031340BB6054
:10091800FB681A02BB681A43064B1343BB60044AC0
:10092800BB68D36000BF1437BD465DF8047B7047D1
:1009380000ED00E00000FA0580B400AF044BDB686E
:100948001B0A03F007031846BD465DF8047B704791
:1009580000ED00E080B483B000AF0346FB7197F967
:100968000730002B0BDBFB7903F01F02074997F9CF
:1009780007305B09012000FA02F241F8232000BF8A
:100988000C37BD465DF8047B704700BF00E100E00E
:1009980080B483B000AF03463960FB7197F9073024
:1009A800002B0ADB3B68DAB20C4997F907301201D1
:1009B800D2B20B4483F800230AE03B68DAB2084954
:1009C800FB7903F00F03043B1201D2B20B441A76F1
:1009D80000BF0C37BD465DF8047B704700E100E0BE
:1009E80000ED00E080B489B000AFF860B9607A60CB
:1009F800FB6803F00703FB61FB69C3F10703042BE2
:100A080028BF0423BB61FB690433062B02D9FB69A9
:100A1800033B00E000237B614FF0FF32BB6902FA21
:100A280003F3DA43BB681A407B699A404FF0FF3101
:100A38007B6901FA03F3D9437B680B4013431846DB
:100A48002437BD465DF8047B704780B500AF0320AE
:100A5800FFF74EFFFFF770FF0346012201211846FA
:100A6800FFF7C0FF034619462C20FFF791FF2C2003
:100A7800FFF770FFFFF760FF0346012202211846C7
:100A8800FFF7B0FF034619463820FFF781FF3820EB
:100A9800FFF760FF00BF80BD80B400AF094B1B6942
:100AA800084A23F001031361BFF36F8F00BF064BA1
:100AB8005B69054A83F04003536100BFBD465DF89A
:100AC800047B704700040140000C024080B582B0EE
:100AD80000AF434B4FF0FF321A61414B00221A61BD
:100AE8003F4B4FF0FF325A613D4B00225A613C4B5D
:100AF8004FF0FF321A623A4B00221A62384B4FF01D
:100B0800FF325A62364B00225A6200F081F8344BA9
:100B18001B6C334A43F080531364314B1B68304AD3
:100B280043F4802313602E4B1B682D4A43F4803313
:100B3800136000BF2A4B1B6803F40033002BF9D065
:100B4800274B1B68264A23F08073136000BF244B91
:100B58001B6803F00073002BF9D1214B9B68204AD6
:100B680043F41443936000237B607B6843F4800361
:100B78007B607B6843F019037B607B6843F4D84350
:100B88007B60174A7B685360164B1B68154A43F015
:100B980007031360124B1B68114A43F080731360FC
:100BA80000BF0F4B1B6803F00073002BF9D00E4BEE
:100BB8001B680D4A43F4803313600B4B1B680A4AC9
:100BC80043F400331360064B9B68054A43F0020365
:100BD800936000F01DF800BF0837BD4680BD00BF18
:100BE80000380240003C02400070004080B400AF72
:100BF800064BD3F88830054A43F47003C2F88830AE
:100C080000BFBD465DF8047B704700BF00ED00E003
:100C180080B487B000AF00233B6100237B610223CF
:100C2800FB600023BB6002237B60344B9B6803F0AE
:100C38000C033B613B69082B11D03B69082B44D856
:100C48003B69002B03D03B69042B04D03DE02C4BBF
:100C58002C4A1A603DE02A4B2B4A1A6039E0274B90
:100C68005B689B0D03F00103BB60244B5B6803F0DA
:100C78003F037B60BB68002B0CD0234A7B68B2FB28
:100C8800F3F31E4A52689209C2F3080202FB03F307
:100C98007B610BE01B4A7B68B2FBF3F3174A52688F
:100CA8009209C2F3080202FB03F37B61134B5B68F2
:100CB8001B0C03F0030301335B00FB607A69FB68DC
:100CC800B2FBF3F30E4A136003E00D4B0D4A1A60B2
:100CD80000BF0A4B9B681B0903F00F030B4AD35C48
:100CE8003B61074B1A683B6922FA03F3044A136015
:100CF80000BF1C37BD465DF8047B704700380240D2
:100D08007C0000200024F40040787D01680E000873
:100D180080B400AF234B5B6C224A43F00203536458
:100D2800214B00229A62204B40F23742DA621E4B76
:100D3800DB6A1D4A5B0853631B4B1B681A4A43F066
:100D480040031360184B1B6A174A43F001031362F0
:100D5800154B9B69144A43F060039361124B9B69DE
:100D6800114A43F0080393610F4B5B6C0E4A43F43E
:100D7800004353640C4BDB680B4A43F00103D36018
:100D8800094B5B68084A43F020035360064B1B6815
:100D9800054A43F00103136000BFBD465DF8047BBC
:100DA800704700BF00380240000401400D488546E6
:100DB800FFF71CFF0C480D490D4A002302E0D458E8
:100DC800C4500433C4188C42F9D30A4A0A4C00238D
:100DD80001E013600432A242FBD300F011F8FFF7E0
:100DE8006DFBFEE7000005200000002080000020C9
:100DF800800E0008800000208C080020FEE700001C
:100E080070B50D4D0D4C641BA4100026A64209D1E7
:100E18000B4D0C4C00F018F8641BA4100026A642D9
:100E280005D170BD55F8043B98470136EEE755F8F3
:100E3800043B98470136F2E7780E0008780E000860
:100E4800780E00087C0E0008F8B500BFF8BC08BC96
:100E58009E467047F8B500BFF8BC08BC9E46704770
:100E68000000000000000000010203040607080952
:040E7800ED01000880
:040E7C00C9010008A0
:100E80000000000000000000000000000000000062
:100E90000000000000000000000000000000000052
:100EA000121427400000000000808BC300000000E7
:100EB000000000006740533A149EE9B9D2B8013BE4
:100EC000510AA53E0DA7CC3CD2B8813A00000000E3
:100ED0000000000000000000000000000000000012
:100EE000000000000000000000E0FF44171D9B44CC
:100EF0000000000000E0FF44171D9B440024F400A4
:0400000508000DB52D
:00000001FF
