:020000040800F2
:1000000000000520251E0008751E0008751E00084A
:10001000751E0008751E0008751E0008000000000F
:10002000000000000000000000000000751E000835
:10003000751E000800000000751E0008751E0008EF
:10004000751E0008751E0008751E0008751E000844
:10005000751E0008751E0008751E0008ED0D0008CD
:10006000751E0008751E0008751E0008751E000824
:10007000751E0008751E0008751E0008751E000814
:10008000751E0008751E0008751E0008751E000804
:10009000751E0008751E0008751E0008751E0008F4
:1000A000751E0008F5170008751E0008751E00086B
:1000B000751E0008751E0008751E0008751E0008D4
:1000C000751E0008751E0008751E0008751E0008C4
:1000D000751E000819180008751E0008751E000816
:1000E000751E0008751E0008751E0008751E0008A4
:1000F000751E0008751E0008751E0008751E000894
:10010000751E0008751E0008751E0008751E000883
:10011000751E0008751E0008751E0008751E000873
:1001200075080008751E0008751E0008751E000879
:10013000751E0008751E0008751E0008751E000853
:10014000751E0008751E0008751E0008751E000843
:10015000751E0008751E0008751E0008751E000833
:10016000751E0008751E0008751E0008751E000823
:10017000751E0008751E0008751E0008751E000813
:10018000751E0008751E0008751E0008751E000803
:10019000751E0008751E0008751E0008751E0008F3
:1001A000751E0008751E0008751E0008751E0008E3
:1001B000751E0008751E0008751E0008751E0008D3
:0801C000751E0008751E000801
:1001C80010B5054C237833B9044B13B10448AFF389
:1001D80000800123237010BD3401002000000000BE
:1001E800C01E000808B5034B1BB103490348AFF311
:1001F800008008BD0000000038010020C01E000873
:1002080070B54FF0FF0C4CF4E06C1CEA11541DBFA4
:100218001CEA135594EA0C0F95EA0C0F00F0DEF86F
:100228002C4481EA030621EA4C5123EA4C5350EA54
:10023800013518BF52EA033541F4801143F48013A5
:1002480038D0A0FB02CE4FF00005E1FB02E506F036
:100258000042E0FB03E54FF00006E1FB03569CF08B
:10026800000F18BF4EF0010EA4F1FF04B6F5007F91
:1002780064F5407404D25FEA4E0E6D4146EB060603
:1002880042EAC62141EA55514FEAC52040EA5E508C
:100298004FEACE2EB4F1FD0C88BFBCF5E06F1ED836
:1002A800BEF1004F08BF5FEA500E50F1000041EB6D
:1002B800045170BD06F0004646EA010140EA02001A
:1002C80081EA0301B4EB5C04C2BFD4EB0C0541EA3C
:1002D800045170BD41F480114FF0000E013C00F351
:1002E800AB8014F1360FDEBF002001F0004170BD75
:1002F800C4F10004203C35DA0C341BDC04F114048E
:10030800C4F1200500FA05F320FA04F001FA05F219
:1003180040EA020001F0004221F0004110EBD370E6
:1003280021FA04F642EB06015EEA430E08BF20EA12
:10033800D37070BDC4F10C04C4F1200500FA04F3B5
:1003480020FA05F001FA04F240EA020001F0004147
:1003580010EBD37041F100015EEA430E08BF20EABA
:10036800D37070BDC4F1200500FA05F24EEA020E02
:1003780020FA04F301FA05F243EA020321FA04F031
:1003880001F0004121FA04F220EA020000EBD370E8
:100398005EEA430E08BF20EAD37070BD94F0000FE8
:1003A8000FD101F00046400041EB010111F4801F1C
:1003B80008BF013CF7D041EA060195F0000F18BFCD
:1003C800704703F00046520043EB030313F4801F09
:1003D80008BF013DF7D043EA0603704794EA0C0FC3
:1003E8000CEA135518BF95EA0C0F0CD050EA4106D9
:1003F80018BF52EA4306D1D181EA030101F0004156
:100408004FF0000070BD50EA410606BF104619467D
:1004180052EA430619D094EA0C0F02D150EA013689
:1004280013D195EA0C0F05D152EA03361CBF1046CA
:1004380019460AD181EA030101F0004141F0FE4169
:1004480041F470014FF0000070BD41F0FE4141F4ED
:10045800780170BD81F0004102E000BF83F00043E5
:1004680030B54FEA41044FEA430594EA050F08BF47
:1004780090EA020F1FBF54EA000C55EA020C7FEA0B
:10048800645C7FEA655C00F0E2804FEA5454D4EB88
:100498005555B8BF6D420CDD2C4480EA020281EA52
:1004A800030382EA000083EA010180EA020281EA8A
:1004B8000303362D88BF30BD11F0004F4FEA0131DC
:1004C8004FF4801C4CEA113102D0404261EB4101EB
:1004D80013F0004F4FEA03334CEA133302D0524271
:1004E80063EB430394EA050F00F0A780A4F101042D
:1004F800D5F1200E0DDB02FA0EFC22FA05F2801867
:1005080041F1000103FA0EF2801843FA05F359414C
:100518000EE0A5F120050EF1200E012A03FA0EFCCB
:1005280028BF4CF0020C43FA05F3C01851EBE371F5
:1005380001F0004507D54FF0000EDCF1000C7EEB12
:1005480000006EEB0101B1F5801F1BD3B1F5001F50
:100558000CD349085FEA30004FEA3C0C04F101046F
:100568004FEA445212F5800F80F09A80BCF1004F98
:1005780008BF5FEA500C50F1000041EB045141EA1A
:10058800050130BD5FEA4C0C404141EB0101013CE3
:1005980028BFB1F5801FE9D291F0000F04BF0146D2
:1005A8000020B1FA81F308BF2033A3F10B03B3F1A4
:1005B80020020CDA0C3208DD02F1140CC2F10C0234
:1005C80001FA0CF021FA02F10CE002F11402D8BF92
:1005D800C2F1200C01FA02F120FA0CFCDCBF41EA5E
:1005E8000C019040E41AA2BF01EB0451294330BD2D
:1005F8006FEA04041F3C1CDA0C340EDC04F114040A
:10060800C4F1200220FA04F001FA02F340EA0300E0
:1006180021FA04F345EA030130BDC4F10C04C4F126
:10062800200220FA02F001FA04F340EA0300294606
:1006380030BD21FA04F0294630BD94F0000F83F450
:10064800801306BF81F480110134013D4EE77FEA33
:10065800645C18BF7FEA655C29D094EA050F08BF7F
:1006680090EA020F05D054EA000C04BF1946104660
:1006780030BD91EA030F1EBF0021002030BD5FEAA4
:10068800545C05D14000494128BF41F0004130BDCC
:1006980014F580043CBF01F5801130BD01F0004520
:1006A80045F0FE4141F470014FF0000030BD7FEA93
:1006B800645C1ABF194610467FEA655C1CBF0B468E
:1006C800024650EA013406BF52EA033591EA030FA5
:1006D80041F4002130BD00BF90F0000F04BF00219D
:1006E800704730B54FF4806404F132044FF00005D0
:1006F8004FF0000150E700BF90F0000F04BF002149
:10070800704730B54FF4806404F1320410F00045AE
:1007180048BF40424FF000013EE700BF42004FEAA9
:10072800E2014FEA31014FEA02701FBF12F07F4326
:1007380093F07F4F81F06051704732F07F4208BFDD
:10074800704793F07F4F04BF41F40021704730B5E4
:100758004FF4607401F0004521F000411CE700BF30
:1007680050EA010208BF704730B54FF000050AE0B3
:1007780050EA010208BF704730B511F0004502D5B4
:10078800404261EB41014FF4806404F132045FEAB6
:10079800915C3FF4D8AE4FF003025FEADC0C18BF5F
:1007A80003325FEADC0C18BF033202EBDC02C2F151
:1007B800200300FA03FC20FA02F001FA03FE40EAE3
:1007C8000E0021FA02F11444BDE600BF4FEA4102CF
:1007D800B2F1E04324BFB3F5001CDCF1FE5C0DD997
:1007E80001F0004C4FEAC0024CEA5070B2F1004FE1
:1007F80040EB830008BF20F00100704711F0804FE4
:1008080021D113F13872BCBF01F00040704741F4A8
:1008180080114FEA5252C2F11802C2F1200C10FAAC
:100828000CF320FA02F018BF40F001004FEAC12390
:100838004FEAD32303FA0CFC40EA0C0023FA02F334
:100848004FEA4303CCE77FEA625307D150EA01330A
:100858001EBF4FF0FE4040F44000704701F00040DA
:1008680040F0FE4040F40000704700BF80B586B0FD
:1008780000AF704B9B686F4A43F020039360BFF34F
:100888006F8F00BF00F0F0F800F0AAF900F06AF9E5
:10089800694BD3ED067AB0EE670A684800F0B4FAFF
:1008A800F0EE407A644BC3ED077A634BD3ED027ADE
:1008B8009FED637A37EE677A5F4BD3ED077ADFED0A
:1008C800616A67EEA67A77EE277AC7ED057AD7EDE3
:1008D800057AB6EE007A67EE877AB0EE670A5A486C
:1008E80000F06DFBB0EE407A534BD3ED017ADFEDAB
:1008F800576A67EEA67A77EE277A554BC3ED007AEA
:10090800534B93ED007A4C4BD3ED037A77EE677A2D
:10091800C7ED047A97ED040A4E4800F050FB87EDC6
:10092800030A4D4AFB6813604B4B93ED007A4B4B1F
:10093800D3ED077AB4EEE77AF1EE10FA07D4444B18
:10094800D3ED007AF5EEC07AF1EE10FA03D5444BF8
:1009580000225A632DE0404B93ED007A3F4BD3EDD4
:10096800087AB4EEE77AF1EE10FA11DD3C4BDB6A57
:1009780007EE903AB8EE677A384BD3ED087A67EE0F
:10098800277A374BFCEEE77A17EE902A5A6310E085
:10099800334BDB6A07EE903AB8EE677A2E4BD3ED0D
:1009A800007A67EE277A2E4BFCEEE77A17EE902A4C
:1009B8005A63274B1B68204A5367254B93ED007AEF
:1009C8001D4BD3ED017ADFED216A67EEA67A77EE4B
:1009D800677A194BC3ED207A174B93ED1F7A164BA4
:1009E800D3ED1D7A27EE277A134BD3ED1E7A77EED7
:1009F800277AFCEEE77A17EE903ABB600E4B93ED40
:100A0800227A0D4BD3ED207A27EE277A0A4BD3EDC5
:100A1800217A77EE277AFCEEE77A17EE903A7B6038
:100A28007B681A040F49BB6813430B6200BF183771
:100A3800BD4680BD006402406800002050010020CF
:100A48000000C442D7A3F03E380000200000000098
:100A5800989D00200800002000000020F4000020DD
:100A6800000401400074004080B400AF3B4B93ED9C
:100A78000F7A3B4B1B6807EE903AF8EE677A27EE41
:100A8800277A364BD3ED087A77EE277A334BC3EDC6
:100A9800017A324B93ED107A314B5B6807EE903A4E
:100AA800F8EE677A27EE277A2C4BD3ED097A77EEA2
:100AB800277A2A4BC3ED027A284B93ED117A284BFB
:100AC8009B6807EE903AF8EE677A27EE277A234B71
:100AD800D3ED0A7A77EE277A204BC3ED037A1F4BC2
:100AE80093ED127A1E4BDB6807EE903AF8EE677AC0
:100AF80027EE277A194BD3ED0B7A77EE277A174B27
:100B0800C3ED047A154B93ED137A154B1B6907EE69
:100B1800903AF8EE677A27EE277A104BD3ED0C7AE5
:100B280077EE277A0D4BC3ED057A0C4B93ED147ACB
:100B38000B4B5B6907EE903AF8EE677A27EE277A57
:100B4800064BD3ED0D7A77EE277A044BC3ED067A80
:100B580000BFBD465DF8047B704700BF68000020F9
:100B68001C01002080B400AF1B4B1B68002B2ED04B
:100B7800194B1B684CF25032934207D1164B4FF079
:100B880000029A65144B9B6D134A1362124B93ED46
:100B9800167A114BD3ED017ADFED106A67EEA67A6B
:100BA80077EE277A0C4BC3ED167A0B4B1B68013B8B
:100BB800094A1360084B1B68002B09D1064BD3ED7B
:100BC800167AF1EE677A044BC3ED087A00E000BFAD
:100BD800BD465DF8047B704768000020ACC5A737A8
:100BE80080B500AF274B93ED037A274BD3ED007AFE
:100BF800B4EEE77AF1EE10FA07DD01F08FF8234B37
:100C08005B69224A43F0040353611E4B93ED067A55
:100C18001D4BD3ED017AB4EEE77AF1EE10FA07DD59
:100C280001F07CF8194B5B69184A43F008035361DB
:100C3800144B93ED057A144BD3ED027AB4EEE77AB0
:100C4800F1EE10FA07DD01F069F8104B5B690F4A05
:100C580043F0100353610B4B93ED027A0A4BD3ED2B
:100C6800037AB4EEE77AF1EE10FA07DD01F056F8F0
:100C7800064B5B69054A43F02003536100F008F80E
:100C880000BF80BD68000020F4000020000C024076
:100C9800B0B582B000AF2A4B93ED037A294BD3ED60
:100CA800067A77EE677AC7ED017A264B1B691846F4
:100CB800FFF734FD04460D467868FFF72FFD1EA3A5
:100CC800D3E90023FFF79CFA02460B462046294643
:100CD800FFF7C6FB02460B4610461946FFF776FD9E
:100CE8000346184A1361174BD3ED047AF5EEC07A20
:100CF800F1EE10FA03D5134B4FF000021A61114BB5
:100D080093ED047A0F4BD3ED057AB4EEE77AF1EE62
:100D180010FA00DC0BE00B4B4FF000021A6100F0F8
:100D2800FDFF094B5B69084A23F03C03536100BF90
:100D38000837BD46B0BD00BFF168E388B5F8E43EAA
:100D480068000020F4000020000C024080B582B04A
:100D580000AF094B1B787B607B68002B07D000F045
:100D6800DDFF064B5A6905497B6813434B6100BF99
:100D78000837BD4680BD00BF9C9D0020000C024086
:100D880080B582B000AF134A134B1B681360134B36
:100D98005B69DBB203F03E03DAB2114B83F86C20D7
:100DA80005210C4800F09CFA0346FB80FB88DAB268
:100DB8000B4B83F86D20FB881B0A9BB2DAB2084BF9
:100DC80083F86E20072001F00DF800BF0837BD46F4
:100DD80080BD00BF049E0020989D0020000C0240AA
:100DE8009C9D002080B400AF064B5B69054A43F028
:100DF80002035361BFF36F8F00BF00BFBD465DF8AC
:100E0800047B7047003C014080B483B000AF786039
:100E180087ED000A7B6803F5104303F6444393ED1E
:100E2800007A7B6803F51043D3F8403C7A689B004E
:100E38001344D3ED007A37EE677AD7ED007A77EE70
:100E4800277A7B6803F5104303F64443C3ED007A21
:100E58007B6803F51043D3F8403C7A689B00134441
:100E68003A681A607B6803F51043D3F8403C0133B5
:100E78007A6802F51042C2F8403C7B6803F51043DB
:100E8800D3F8403C42F20F72934206D97B6803F5CF
:100E980010431A460023C2F8403C7B6803F5104310
:100EA80003F64443D3ED007A9FED057A67EE877A1F
:100EB800B0EE670A0C37BD465DF8047B704700BF8B
:100EC80017B7D13880B485B000AF786087ED000AD5
:100ED8007B6893ED017A7B68D3ED006AD7ED007AE1
:100EE80066EEA77A37EE277A7B68D3ED037AB4EEFD
:100EF800E77AF1EE10FA03D57B68D3ED037A23E0A5
:100F08007B6893ED017A7B68D3ED006AD7ED007AB0
:100F180066EEA77A37EE277A7B68D3ED047AB4EECB
:100F2800E77AF1EE10FA03DD7B68D3ED047A0BE083
:100F38007B6893ED017A7B68D3ED006AD7ED007A80
:100F480066EEA77A77EE277AC7ED037A7B6893ED8A
:100F5800007AD7ED007A27EE277AD7ED037A77EE75
:100F6800277A7B68C3ED017AFB6807EE903AB0EE0A
:100F7800670A1437BD465DF8047B704780B485B0B6
:100F880000AF786087ED000A7B68D3ED017A97EDB2
:100F9800007A37EE677A7B68D3ED007A67EE277AB6
:100FA800C7ED037A7B683A685A60FB6807EE903AA7
:100FB800B0EE670A1437BD465DF8047B704780B50C
:100FC80086B000AF786087ED000A7B68D3ED007AC1
:100FD80097ED007A67EE277AC7ED057A7B680833C4
:100FE80097ED000A1846FFF76DFF87ED040A7B6846
:100FF8001C3397ED000A1846FFF7C0FF87ED030A78
:1010080097ED057AD7ED047A37EE277AD7ED037A8C
:1010180037EE277A7B68D3ED0A7AB4EEE77AF1EEF9
:1010280010FA03D57B68D3ED0A7A1FE097ED057AAD
:10103800D7ED047A37EE277AD7ED037A37EE277A99
:101048007B68D3ED0B7AB4EEE77AF1EE10FA03DDA4
:101058007B68D3ED0B7A09E097ED057AD7ED047A32
:1010680037EE277AD7ED037A77EE277AB0EE670A5C
:101078001837BD4680BD000008B572B600F06FFB9A
:1010880000F0AEFC00F0B6F900F050F900F066F997
:1010980000F036F800F0CAFD00F050FE00F0F4F859
:1010A80000F006FE002300E0013341F2873293424C
:1010B800FADD62B608E00E4B4CF250321A600D4B66
:1010C8001B6913F0040F05D00A4B1B6913F0020FBC
:1010D800F5D1F0E7084B00225A649A655A619A6282
:1010E80000F00CFE054A536923F03C035361EBE71B
:1010F800680000200004024000000020000C0240AC
:1011080080B400AF5B4B5B6C5A4A43F48073536402
:10111800584B5B6C574A43F400735364554B5B6CF4
:10112800544A43F480635364534B9B68524A43F0D8
:1011380001039360514B9B68504A43F0010393604D
:101148004F4B9B684E4A43F0010393604A4B5B6BDD
:10115800494A43F003035363484B484A5B6B536364
:10116800474B5B6B464A43F00E035363424B5B6B42
:10117800414A43F410735363404B5B6B3F4A43F45B
:10118800D07353633E4B5B6B3D4A43F4C073536368
:10119800394BDB6A384A43F48013D362374BDB6A36
:1011A800364A43F48013D362354BDB6A344A43F43E
:1011B8008013D362304B5B682F4A43F480735360CB
:1011C8002E4B5B682D4A43F4807353602C4B5B684D
:1011D8002B4A43F480735360274BDB68264A43F05D
:1011E8008073D360244B1B69234A43F40073136153
:1011F800224B1B69214A43F0010313611F4BDB6833
:101208001E4A43F40073D3601D4BDB681C4A43F449
:101218008053D3601A4BDB68194A43F04003D3600C
:10122800154B9B68144A43F0E0639360124B9B682C
:10123800114A43F080539360124B5B68114A43F4A0
:10124800000353600F4B5B680E4A43F480435360BE
:101258000C4B5B680B4A43F400535360094B5B68C3
:10126800084A43F01603536000BFBD465DF8047B8F
:10127800704700BF003802400020014000210140B3
:10128800002201400023014080B400AF124B1B6BC9
:10129800114A43F480531363104B9B680F4A43F081
:1012A800080393600D4B9B680C4A43F080039360DE
:1012B8000A4B9B68094A43F020039360074B4FF69B
:1012C800FF721A61054B48F205025A6100BFBD461C
:1012D8005DF8047B704700BF0038024000300240D0
:1012E80080B485B000AF786039600F4B9B680E4AB8
:1012F80043F0010393600023FB6008E0FB687A6811
:101308001344094A1B781370FB680133FB60FB68C0
:101318003A689A42F2D8044B1B689BB218461437B5
:10132800BD465DF8047B70470030024080B400AFD2
:10133800084B1B6C074A43F000531364064B1B68A9
:10134800054A43F00113136000BFBD465DF8047BF6
:10135800704700BF003802400074004080B400AFFE
:10136800204B1B6B1F4A43F4800313631E4B1F4A19
:101378009A601D4B1E4ADA601B4B06225A601A4BB4
:10138800194A1B681360184B1B68174A43F440330B
:101398001360154B1B68144A43F480531360124BB7
:1013A8001B68114A43F4804313600F4B1B680E4AB5
:1013B80043F4806313600C4B1B680B4A43F480733F
:1013C8001360094B1B68084A43F010031360064B6F
:1013D8001B68054A43F00103136000BFBD465DF872
:1013E800047B704700380240106402400823014023
:1013F8001C01002080B500AF4D4B1B6B4C4A43F0DD
:10140800040313634A4B1B6B494A43F008031363F5
:10141800474B1B6B464A43F002031363444B1B6B59
:10142800434A43F001031363414B1B6B404A43F0AB
:10143800200313633E4B1B6B3D4A43F04003136389
:101448003B4B5B6C3A4A43F480435364012139486F
:1014580000F07EF80221374800F07AF80321354879
:1014680000F076F80421334800F072F8052131487D
:1014780000F06EF806212F4800F06AF807212D4881
:1014880000F066F809212C4800F062F80A212A4881
:1014980000F05EF80B21284800F05AF803220621D4
:1014A800264800F06AF80021254800F095F8022146
:1014B800224800F091F80321204800F08DF804211B
:1014C800204800F089F803211D4800F085F8042120
:1014D8001B4800F081F80521194800F07DF81A4BE7
:1014E8009B68194A43F010039360184B1B68174A0E
:1014F80043F002031360154BDB68144A43F0020300
:10150800D360124B9B68114A43F002039360072291
:1015180009210B4800F031F807220A21084800F099
:101528002CF807220C21064800F027F800BF80BDE0
:1015380000380240000C0240001802400008024037
:10154800000002400014024000380140003C014005
:1015580080B483B000AF786039607B681B683A68F4
:101568005200012101FA02F21A437B681A6000BF97
:101578000C37BD465DF8047B704780B485B000AF7A
:10158800F860B9607A60BB68072B0AD8FB681A6AEA
:10159800BB689B00796801FA03F31A43FB681A6277
:1015A8000AE0FB685A6ABB68083B9B00796801FA45
:1015B80003F31A43FB685A62FB681B68BA68520057
:1015C800022101FA02F21A43FB681A6000BF1437BD
:1015D800BD465DF8047B704780B483B000AF786087
:1015E80039607B681B683A685200032101FA02F2ED
:1015F8001A437B681A6000BF0C37BD465DF8047B50
:101608007047000080B485B000AF78607B6803F055
:101618000703FB600B4BDB68BB60BA684FF6FF0340
:101628001340BB60FB681A02BB681A43064B13439E
:10163800BB60044ABB68D36000BF1437BD465DF881
:10164800047B704700ED00E00000FA0580B400AFAD
:10165800044BDB681B0A03F007031846BD465DF818
:10166800047B704700ED00E080B483B000AF034610
:10167800FB7197F90730002B0BDBFB7903F01F0296
:10168800074997F907305B09012000FA02F241F88F
:10169800232000BF0C37BD465DF8047B704700BFB0
:1016A80000E100E080B483B000AF03463960FB710D
:1016B80097F90730002B0ADB3B68DAB20C4997F937
:1016C80007301201D2B20B4483F800230AE03B68CA
:1016D800DAB20849FB7903F00F03043B1201D2B2D6
:1016E8000B441A7600BF0C37BD465DF8047B704783
:1016F80000E100E000ED00E080B489B000AFF860E0
:10170800B9607A60FB6803F00703FB61FB69C3F10A
:101718000703042B28BF0423BB61FB690433062B92
:1017280002D9FB69033B00E000237B614FF0FF32E5
:10173800BB6902FA03F3DA43BB681A407B699A4033
:101748004FF0FF317B6901FA03F3D9437B680B4003
:10175800134318462437BD465DF8047B704780B5AF
:1017680000AF0320FFF74EFFFFF770FF034602228A
:1017780003211846FFF7C0FF034619461920FFF753
:1017880091FF1920FFF770FFFFF760FF0346012262
:1017980002211846FFF7B0FF034619463820FFF725
:1017A80081FF3820FFF760FFFFF750FF0346012253
:1017B80001211846FFF7A0FF034619460720FFF747
:1017C80071FF0720FFF750FFFFF740FF0346012294
:1017D80003211846FFF790FF034619462520FFF717
:1017E80061FF2520FFF740FF00BF80BD80B500AF37
:1017F800064B1B69054A23F001031361BFF36F8F82
:1018080000BFFFF7BDFA00BF80BD00BF0000014068
:1018180080B582B000AF504BDB6903F02003002B8A
:101828000FD04D4B1B6803F02003002B09D04A4B07
:10183800586A4A4B5B6E5A1C48494A66C1B2474AC5
:10184800D154454BDB6903F08003002B26D0424B73
:101858001B6803F08003002B20D0404BD3F8CC301A
:101868005A1C3E49C1F8CC203C4A134493F86820DE
:10187800394B9A62394BD3F8CC20384BD3F8D03057
:101888009A420BD3344B1B68334A23F0800313600E
:10189800314B1B68304A43F0400313602E4BDB6921
:1018A80003F40063002B32D02B4B1B6A2A4A43F403
:1018B80000631362294BD3F8CC30022B24D9274B71
:1018C8005B6E023B19462548FFF70AFD0346FB807D
:1018D800FB887B71FB881B0A9BB23B711F4B5B6EBD
:1018E800023B1E4AD35CFB701C4B5B6E013B1B4AE0
:1018F800D35CBB707A79FB789A4205D13A79BB7888
:101908009A4201D1FFF722FA144B00225A66124B71
:10191800DB6903F04003002B19D00F4B1B6803F061
:101928004003002B13D00C4B1B6A0B4A43F04003B7
:1019380013620A4B0022C3F8CC20084B0022C3F8DC
:10194800D020054B1B68044A23F04003136000BFF6
:101958000837BD4680BD00BF001001409C9D002097
:1019680080B400AFBFF34F8F00BFBFF36F8F00BFCE
:101978000D4B0022C3F85022BFF34F8F00BFBFF3B7
:101988006F8F00BF084B5B69074A43F4003353610C
:10199800BFF34F8F00BFBFF36F8F00BF00BFBD46BF
:1019A8005DF8047B704700BF00ED00E080B400AF35
:1019B800BFF34F8F00BFBFF36F8F00BF074B0022ED
:1019C800C3F85022BFF34F8F00BFBFF36F8F00BF24
:1019D80000BFBD465DF8047B704700BF00ED00E026
:1019E80080B582B000AF454B4FF0FF321A61434BD0
:1019F80000221A61414B4FF0FF325A613F4B0022DF
:101A08005A613E4B4FF0FF321A623C4B00221A6279
:101A18003A4B4FF0FF325A62384B00225A62FFF7B6
:101A2800C5FFFFF79DFF00F081F8344B1B6C334A6C
:101A380043F080531364314B1B68304A43F48023CE
:101A480013602E4B1B682D4A43F48033136000BF8C
:101A58002A4B1B6803F40033002BF9D0274B1B6873
:101A6800264A23F08073136000BF244B1B6803F0E1
:101A78000073002BF9D1214B9B68204A43F414438F
:101A8800936000237B607B6843F480037B607B6802
:101A980043F019037B607B6843F4D8437B60174AA3
:101AA8007B685360164B1B68154A43F007031360A5
:101AB800124B1B68114A43F08073136000BF0F4B31
:101AC8001B6803F00073002BF9D00E4B1B680D4AFE
:101AD80043F4803313600B4B1B680A4A43F400330A
:101AE8001360064B9B68054A43F00203936000F0BD
:101AF8001DF800BF0837BD4680BD00BF0038024052
:101B0800003C02400070004080B400AF064BD3F8A0
:101B18008830054A43F47003C2F8883000BFBD46D8
:101B28005DF8047B704700BF00ED00E080B487B02B
:101B380000AF00233B6100237B610223FB6000238D
:101B4800BB6002237B60344B9B6803F00C033B6152
:101B58003B69082B11D03B69082B44D83B69002B03
:101B680003D03B69042B04D03DE02C4B2C4A1A606F
:101B78003DE02A4B2B4A1A6039E0274B5B689B0DE6
:101B880003F00103BB60244B5B6803F03F037B60F9
:101B9800BB68002B0CD0234A7B68B2FBF3F31E4AC8
:101BA80052689209C2F3080202FB03F37B610BE05F
:101BB8001B4A7B68B2FBF3F3174A52689209C2F3D7
:101BC800080202FB03F37B61134B5B681B0C03F0F9
:101BD800030301335B00FB607A69FB68B2FBF3F334
:101BE8000E4A136003E00D4B0D4A1A6000BF0A4B02
:101BF8009B681B0903F00F030B4AD35C3B61074B3F
:101C08001A683B6922FA03F3044A136000BF1C37C1
:101C1800BD465DF8047B704700380240180100207B
:101C28000024F40040787D01D81E000880B500AF7C
:101C38001D4B5B6C1C4A43F0020353641B4B002290
:101C48009A621A4B40F23742DA62184B1B68174AFD
:101C580043F040031360154B1B6A144A43F0010319
:101C6800136200F04BF8114B9B69104A43F00803CC
:101C780093610E4B5B6C0D4A43F4004353640B4B6A
:101C8800DB680A4A43F00103D360084B5B68074AE4
:101C980043F020035360054B1B68044A43F00103DB
:101CA800136000BF80BD00BF00380240000401403F
:101CB80080B400AF0E4B5B6C0D4A43F002035364D3
:101CC8000C4B01229A620B4B0B4ADA62094BDB6818
:101CD800084A43F00103D360064B1B68054A43F0EA
:101CE8000103136000BFBD465DF8047B704700BF69
:101CF80000380240000001407F51010080B400AF6D
:101D0800054B9B69044A43F06003936100BFBD46DD
:101D18005DF8047B704700BF0004014080B400AF49
:101D2800054B9B69044A23F02003936100BFBD461D
:101D38005DF8047B704700BF0004014080B400AF29
:101D4800264B5B6C254A43F010035364244B1B68F5
:101D5800234A23F010231360214B1B68204A23F4E5
:101D6800004313601E4B1B681D4A23F480631360F5
:101D78001B4B1B681A4A43F00C031360184B5B6833
:101D8800174A43F400035360154B23225A61144B3E
:101D9800EA22DA60124B5B68114A23F4405353601D
:101DA8000F4B9B680E4A43F4804393600C4B1B68AF
:101DB8000B4A43F020031360094B1B68084A43F0A1
:101DC80080631360064B1B68054A43F001031360E8
:101DD80000BFBD465DF8047B704700BF0038024075
:101DE8000010014080B483B000AF7860094B002236
:101DF800C3F8CC20074A7B68C2F8D030064B1B6872
:101E0800054A43F08003136000BF0C37BD465DF8F8
:101E1800047B70479C9D0020001001400D488546BA
:101E2800FFF772FE0C480D490D4A002302E0D45812
:101E3800C4500433C4188C42F9D30A4A0A4C00230C
:101E480001E013600432A242FBD300F011F8FFF75F
:101E580013F9FEE700000520000000201C01002007
:101E6800F01E000834010020709E0020FEE70000EC
:101E780070B50D4D0D4C641BA4100026A64209D167
:101E88000B4D0C4C00F018F8641BA4100026A64259
:101E980005D170BD55F8043B98470136EEE755F873
:101EA800043B98470136F2E7E81E0008E81E0008E0
:101EB800E81E0008EC1E0008F8B500BFF8BC08BC16
:101EC8009E467047F8B500BFF8BC08BC9E467047F0
:101ED80000000000000000000102030406070809D2
:041EE800ED01000800
:041EEC00C901000820
:101EF0000000000000000000096E643D00000000CA
:101F000048661A3B000000000000000000000000CE
:101F100048E17A3F000000000000000000000000DF
:101F20000000000048E17A3FFCA9813F000000006A
:101F3000874E4F3C00000000000000000000000041
:101F40000000E04000000000000000000000000071
:101F50000000E0C00000E0400000000000000000C1
:101F60000000000000000000000000000000000071
:101F7000000000000000000000000000CDCCC842BE
:101F80000000000000808BC3000000000000000083
:101F9000000000006740533ACE75F6BAD2B8013B54
:101FA000510AA53E0DA7CC3CD2B8813A00000000F2
:101FB0000000000000000000000000000000000021
:101FC0000000000000000000000000000000000011
:101FD0000000000000C04C440000000000000000B1
:101FE00000C04C4400000041000040400000B442EA
:101FF0000000C84200000000000070420000C04025
:0C2000000AD7A33C48E17A3F0024F4001A
:10200C0000000000000000000000000000000000C4
:08201C000000000000000000BC
:0400000508001E25AC
:00000001FF
